:1000000090FBFF1F7D120000011300000113000090
:1000100000000000000000000000000000000000E0
:1000200000000000000000000000000001130000BC
:10003000000000000000000001130000E9120000B1
:100040000113000001130000011300000113000060
:100050000000000001130000011300000113000064
:100060000113000001130000011300000113000040
:100070000113000001130000011300000113000030
:100080000113000001130000011300000113000020
:100090000113000001130000011300000000000024
:1000A000F51200000113000001130000011300000D
:1000B0000113000000000000011300000113000004
:10040000FFFFFFFFFFFFFFFFFFFFFFFFFEFFFFFFFD
:1004100080B582B000AF78607B68202B25DC144863
:10042000134AC0235B00D2587B6812490B4004D5A5
:10043000013B202149420B430133191C01238B400E
:100440001A43C0235B00C250094A094B19687B68F4
:100450000848034004D5013B2020404203430133B8
:10046000181C012383400B431360BD4602B080BDBE
:1004700000E100E01F00008080B582B000AF021CE8
:10048000FB1D1A70FB1D1B78012B0DD0022B1FD0FA
:10049000002B32D11F491F4A1F4BD358A022D20232
:1004A00013431D4A8B5028E000F042F81949194ABD
:1004B000194BD358194A1340174A8B501549154AFE
:1004C000154BD3588022D2021343134A8B5014E0A9
:1004D0001049104A104BD358114A13400E4A8B5002
:1004E0000C490C4A0F4BD3588022920013430D4AFB
:1004F0008B500D4B802292005A610649054A0B4BE6
:10050000D3588022D2021343084A8B50BD4602B012
:1005100080BDC0460070044004100000FFFFFEFFD5
:10052000FFFFFBFF38100000009004403410000073
:1005300080B500AFBD4680BD80B582B000AF7860A9
:100540000A1CFB1C1A70FB1C1B78013B7A68D21832
:100550000A4B1A600A4B7A681A600A4BFA1C127826
:100560001A70094B7A681A60084B7A681A60084B4F
:1005700000221A70BD4602B080BDC0460CF2FF1FBB
:1005800014F2FF1F1DF2FF1F18F2FF1F10F2FF1FD2
:100590001CF2FF1F80B500AF3C4B1A683C4B1A6041
:1005A0003C4B00221A700120FFF766FF1820FFF76E
:1005B0002FFF3949384A86235B00D35CDBB28022A7
:1005C00052421343DAB286235B00CA54C046324A11
:1005D00086235B00D35CDBB2DBB25BB2002BF6DBC5
:1005E0002D4A2E4B1B0AD9B29C23D1542A4A2B4B9D
:1005F0001B0CD9B2B023D154274A284B1B0ED9B2B9
:10060000B423D154244A24498023CB5CDBB2022199
:100610000B43D9B28023D1541F4A1F498423CB5C9A
:10062000DBB201210B43D9B28423D1541A4A1A49AF
:1006300080235B00CB5CDBB23F210B40D9B280232F
:100640005B00D154144A144986235B00CB5CDBB2B7
:1006500040210B43D9B286235B00D1540E4A0E4988
:100660009423CB5CDBB201210B43D9B29423D15448
:10067000094A094984235B00CB5CDBB210210B43A0
:10068000D9B284235B00D154BD4680BD00F0FF1F6A
:1006900044F4FF1F7CF5FF1F0020074000F6FF1FFA
:1006A00080B586B000AF3960111CFB1D021C1A70AA
:1006B000BB1D0A1C1A701023FB1800221A800F237E
:1006C000FB18FA1D12781A70FB1D1B78002B04D042
:1006D000FB1DFA1D127892001A70FB1DFA1D12788C
:1006E00002321A70FB1D1A785A4B9200D3587B6164
:1006F000594B1B781A1C0123134025D0574B3A68DD
:100700001A60574BBA1D12781A70564B1B68DB796A
:100710009BB21B0299B2534B1B689B799AB2102370
:10072000FB188A181A80BB1D1B789BB21022BA18BE
:1007300012889A4208D2FB1D1B78022B04D1494B28
:100740001B689A79464B1A70FB1D1B78464AD25C8F
:10075000434B1B789A4218D2FB1D1A781323FB18BF
:1007600041498A5C1A703E4B1A78FB1D1B783E4942
:10077000CB5CD31ADAB23A4B1A70374B1B78012292
:100780009343DAB2344B1A700EE01323FB18344A49
:1007900012781A70324B00221A702F4B1B780122EC
:1007A0001343DAB22C4B1A70FB1D1B781322BA18B4
:1007B000127891B22D4ADB00D3180A1C5A8009E046
:1007C0007B695A1C7A61254A1268501C23490860CB
:1007D00012781A701323FB181B781322BA18591EAB
:1007E0001170002BECD1224B1B781A1C0F23FB1825
:1007F0001B78DA40131C0122134015D0FB1D1A7818
:100800001A4BD2008821D1540F23FB181B780122E8
:100810009A40131CDBB2DB43DBB2154A127813405B
:10082000DAB2134B1A7012E0FB1D1A780F4BD2008C
:10083000C821D1540F23FB181B7801229A40131CA6
:10084000DAB20B4B1B781343DAB2094B1A70BD4670
:1008500006B080BD00F0FF1F38F5FF1F80F6FF1FB8
:1008600020F4FF1F44F4FF1FC415000000F6FF1F13
:10087000D0F4FF1F80B584B000AF021C3960FB1DAF
:100880001A70FB1D1A78FB1D01321A70FB1D1A78B5
:10089000144B9200D358FB60FB1D1B78124ADB00FF
:1008A000D3185A880B23FB181A70FB1D0B22BA1899
:1008B00012781A7007E03B685A1C3A60FA68511CBB
:1008C000F96012781A700B23FB181B780B22BA18E8
:1008D000591E1170002BEED1FB1D1B78181CBD4654
:1008E00004B080BD00F0FF1F00F6FF1F80B584B08C
:1008F00000AF021CFB1D1A70FB1D1B789B000F4AEA
:10090000DB00D3185B881B0A9BB2D9B2FB1D1B7896
:100910009B000A4ADB00D3185B881B02DBB20A1C6F
:100920001343DAB20F23FB181A700F23FB181B783E
:100930009BB2181CBD4604B080BDC04600F6FF1F28
:1009400080B500AF1C4AC4230521D1541A4AC823DC
:100950000521D154184ACC230921D154164AD02359
:100960000121D154144AD4230121D154124AD8234D
:100970000121D154114B3022002199540F4B0022F8
:100980005A860F4A0D4B5A630C4B50220021995442
:100990000A4B5222002199520A4A084B5A65074BCA
:1009A000602280219954054B6222FF219952064A08
:1009B000024B5A66BD4680BD0020074000F6FF1F6F
:1009C00090F4FF1F6CF4FF1FC4F6FF1F80B500AF4B
:1009D0003B4B1B685B78092B6DD89A00394BD318B9
:1009E0001B689F46002000210022FFF759FE364B6E
:1009F00003221A7062E0324B1B68DB78022B0AD0AC
:100A0000032B0FD0012B21D1304B0020191C1222B7
:100A1000FFF746FE1DE02E4B0020191C4322FFF776
:100A20003FFE16E0264B1B689B781A1C294B920050
:100A3000D158234B1B689B781A1C264B9200D35825
:100A40001B7800201A1CFFF72BFE02E000F060F973
:100A5000C04633E01A4B1B68DA78194B1B689B7849
:100A6000D318DAB21C4B1A70154B1B68DB781A1CB2
:100A7000134B1B689B78D318002B0AD0FFF760FF3D
:100A8000002000210022FFF70BFE0F4B01221A70FD
:100A900014E013E0104B0020191C0122FFF700FEA8
:100AA0000CE00E4B00221A800C4B0020191C022275
:100AB000FFF7F6FD02E000F02BF9C046BD4680BD11
:100AC00044F4FF1FD41500007CF5FF1F2C15000017
:100AD0008015000040F0FF1F7DF5FF1F8CF4FF1F05
:100AE00090B583B000AF234B1B7801229343DAB259
:100AF000204B1A70204B1B681B781A1C1F231340B5
:100B0000012B10D0022B1FD0002B23D11A4B1B68B6
:100B10001B781A1C1F23134001D1FFF757FF174BF7
:100B200088221A7019E0FC1D00F0C8FA031C23701B
:100B3000FB1D1B78002B03D1104B88221A700CE090
:100B40000E4BC8221A7008E000F01CF80B4B8822EC
:100B50001A7002E000F0DCF8C046094A0849942304
:100B6000CB5CDBB220218B43D9B29423D154BD4658
:100B700003B090BDD0F4FF1F44F4FF1F00F6FF1F29
:100B80000020074080B582B000AF274B1B685B7820
:100B9000012B1ED0032B31D0002B00D041E0234B82
:100BA0001B781A1C204B1B685B79DA40131C01224E
:100BB000134004D0BB1D802252001A8002E0BB1DEE
:100BC00000221A80BB1D0020191C0222FFF768FDBD
:100BD00027E0154B1B685B791A1C01239340DBB29D
:100BE000DB43DBB2114A12781340DAB20F4B1A70B2
:100BF000002000210022FFF753FD12E00A4B1B6882
:100C00005B791A1C01239340DAB2084B1B7813431B
:100C1000DAB2064B1A70002000210022FFF740FDD7
:100C2000C046BD4602B080BD44F4FF1F68F4FF1FFC
:100C300080B582B000AF204A9023D35CDAB2FB1DAE
:100C400008210A401A701C4A9023D35CDAB2BB1DFB
:100C500012091A70BB1D1B78002B17D0FB1D1B78C7
:100C6000002B26D1BB1D1B789A00144BD20000210B
:100C7000D154BB1D1B7801229A40131CDAB2104BD1
:100C80001B781343DAB20E4B1A7012E0FB1D1B786F
:100C9000002B02D000F016F80BE0084B1B783C222A
:100CA0001340DBB2342B02D1FFF71AFF01E000F052
:100CB00047F8BD4602B080BD0020074000F6FF1F88
:100CC00014F5FF1F80B500AF0D4B1B78032B0FD120
:100CD0000C4A0D4B1B6899789823D154084B042279
:100CE0001A700A4B1B7801221343DAB2074B1A70B1
:100CF000002000210022FFF7D3FCBD4680BDC04686
:100D00007CF5FF1F0020074044F4FF1F38F5FF1F4C
:100D100080B500AF084A0849C023CB5CDBB2022192
:100D20000B43D9B2C023D154044B88221A70034B11
:100D300020225A80BD4680BD0020074000F6FF1FDC
:100D400080B500AF054B1B7801221343DAB2034B89
:100D50001A70034B88221A70BD4680BD14F5FF1F20
:100D600000F6FF1F80B500AF0F4AC023D35CDBB293
:100D70001A1C0223134009D00B4A0B49C023CB5C39
:100D8000DBB202218B43D9B2C023D1540649064AB3
:100D90008023D35CDBB2802252421343DAB2802339
:100DA000CA54BD4680BDC0460020074080B500AF94
:100DB000414BFF221A70414B00221A70404B002217
:100DC0001A70404AC4230021D1543E4AC82300214E
:100DD000D1543C4ACC230021D1543A4AD02300219B
:100DE000D154384AD4230021D154364AD823002183
:100DF000D154354B20225A80344A334B5A60324BFF
:100E0000C8221A70304B20225A81314A2E4BDA60A8
:100E10002D4BC8221A722C4B20225A822D4A2A4B63
:100E20005A61294B88221A74274B20225A832A4A56
:100E3000254BDA61244B88221A76224AC0230D21E1
:100E4000D154204A8823FF21D1541E4A8023FF21F8
:100E5000D1541C4A98230021D1541A4A8C23FF21D3
:100E6000D154184A17498423CB5CDBB208210B43C9
:100E7000D9B28423D154134A12498423CB5CDBB208
:100E800004210B43D9B28423D1540E4A0D49842343
:100E9000CB5CDBB202210B43D9B28423D154094A83
:100EA00008498423CB5CDBB201210B43D9B28423F4
:100EB000D154BD4680BDC04638F5FF1FD0F4FF1F9A
:100EC00069F4FF1F0020074000F6FF1FB0F4FF1F6A
:100ED0005CF5FF1F3CF5FF1F84F6FF1F80B500AFD8
:100EE0002A4A8023D35CDBB21A1C0123134002D0B0
:100EF000FFF75CFF48E0254A8023D35CDBB21A1C75
:100F00000423134003D0214A80230421D1541F4AD3
:100F10008023D35CDBB2DBB25BB2002B01DAFFF7DC
:100F200021FF1A4A8023D35CDBB21A1C082313402A
:100F300015D0164A15499423CB5CDBB202210B4332
:100F4000D9B29423D154FFF773FE104A0F4980237E
:100F5000CB5CDBB208210B43D9B28023D1540B4ABE
:100F60008023D35CDBB21A1C1023134009D0074A3C
:100F700006498023CB5CDBB210210B43D9B280231E
:100F8000D154024A8023D35CBD4680BD0020074077
:100F900080B500AF0F4B00221A70FFF7FBFA0E4B23
:100FA0000D4AD269C02189000A43DA610B4B9622AF
:100FB00092011A60094B00221A71084B00225A71E3
:100FC000064B08229A71064B181C8021FFF7B4FAD1
:100FD000BD4680BD00F2FF1F00B0044004F7FF1FB4
:100FE0000CF7FF1F80B500AF2D4B1B78DBB21A1C2E
:100FF0000223134019D02B4A2A499423CB5CDBB23D
:1010000002210B43D9B29423D154274B00221A70EA
:10101000264B01221A70FFF7BBFF214B1B78DBB276
:1010200002229343DAB21E4B1A701F4B1B78202BFF
:1010300015D0222B2CD0002B01D02FE004E0C0468D
:101040001B4B1B78012BF9D1184B1B78002B02D0BE
:10105000164B00221A70144B00221A701EE0154B1A
:101060001B781A1C0123134011D0124B1B7801224C
:101070009343DAB20F4B1A700F4B0020191CFFF785
:10108000F9FB002000210022FFF70AFB06E005E043
:10109000002000210022FFF703FBC046BD4680BDB3
:1010A00001F2FF1F0020074000F2FF1F50F0FF1F5A
:1010B0007CF5FF1F14F5FF1F04F7FF1F80B582B0FA
:1010C00000AFFB1D00221A70214B1B685B78212B9F
:1010D00011D004DC0A2B07D0202B13D031E0222BB7
:1010E00017D0AA2B1CD02CE01A4B0020191C01226F
:1010F000FFF7D6FA25E0184B0020191C0722FFF74E
:10110000CFFA1EE0154B20221A70FB1D01221A7027
:1011100017E0124B22221A70FB1D00221A7010E0F9
:101120000F4B181C8021FFF707FA0E4B1B7880220B
:1011300052421343DAB20B4B1A70094BFF221A705A
:10114000C046FB1D1B78181CBD4602B080BDC046C2
:1011500044F4FF1F15F5FF1F04F7FF1F00F2FF1FE8
:101160000CF7FF1F14F5FF1F80B500AF164B164A92
:101170005268802149040A435A60134B124A12688C
:10118000802109060A431A600F4B0F4A52688021DA
:10119000C9040A435A600C4B0B4A12688021C905E6
:1011A0000A431A60084B084A5268802189040A439E
:1011B0005A60054B044A1268802189050A431A6067
:1011C000FFF7E6FEBD4680BD0070044080B584B0E8
:1011D00000AF786001235B42FB60FFF703FF144B15
:1011E0001B781A1C082313401DD00320FFF77EFB39
:1011F000104B6222202199520E4B6022802199547B
:101200000B4B1B7808229343DAB2094B1A700A4B36
:101210000220191C0122FFF743FA074B1A787B685A
:101220001A700123FB60FB68181CBD4604B080BD2A
:1012300014F5FF1F00F6FF1FC4F6FF1F80B582B034
:1012400000AF78607B680B4A934201D901230CE020
:10125000094B7A681202120A013A5A60064B0022C0
:101260009A60054B07221A600023181CBD4602B085
:1012700080BDC046FFFFFF0010E000E080B582B0F7
:1012800000AF00F00BF9124B7B60124B3B6007E0A4
:101290003B681A1D3A607A68111D796012681A60FD
:1012A0003A680D4B9A42F3D30C4B3B6004E03B6829
:1012B0001A1D3A6000221A603A68094B9A42F6D326
:1012C000084B181CFFF7BAFF00F0CAF8FEE7C0464B
:1012D000FC15000000F0FF1F54F0FF1F00F2FF1F7D
:1012E0008CF7FF1F80BB000080B500AF00F008F94D
:1012F000BD4680BD80B500AFFFF7F0FDBD4680BDA7
:1013000080B500AFFEE7C04680B500AF0E4A882327
:101310005B010021D1500C490B4A0C4BD358802261
:10132000D2001343094A8B50094B802252001A60A5
:10133000084B01229A60074B064A526901210A4371
:101340005A61BD4680BDC0460070044038100000A0
:1013500000A0044040F00F4080B582B000AF2049AB
:101360001F4A204BD3588022920013431D4A8B50B2
:101370001B491B4A1C4BD3588022D20013431A4AE4
:101380008B501749164A194BD3588022D204134365
:10139000164A8B50164B802292005A60144B8022C2
:1013A00092009A60134B134A526904210A435A610E
:1013B000114B18229A72C8237B600F4A7B681B0A64
:1013C000DBB21F210B40DBB213700B4B7A68D2B239
:1013D0005A70094B0C22DA70BD4602B080BDC0467F
:1013E00000700440381000003410000004100000A9
:1013F0000090044000F00F4000A0064080B500AF10
:1014000000F08AF8021C074B1B68D31AFA2B07D985
:1014100000F082F8021C034B1A60034B0122DA60D1
:10142000BD4680BD04F2FF1F40F00F4080B582B082
:1014300000AF7860094B1B79DBB21A1C20231340E4
:1014400006D0064BDB79DAB27B681A70012301E023
:1014500001235B42181CBD4602B080BD00A00640BF
:1014600080B582B000AF01235B427B60FFF74CFF89
:10147000FFF772FFFFF778FEFFF7C0FFFB1C181C99
:10148000FFF7A4FE031C7B607B68013305D1FB1CC6
:10149000181CFFF7CBFF031C7B60EDE780B500AFA6
:1014A0001249124BDB78DBB21F221340DBB2602201
:1014B00052421343DBB2CB700D490D4A0D4BD3584A
:1014C000E0229343402213430A4A8B500849084ABA
:1014D000094BD358802212011343074A8B50074B04
:1014E000A822D200DA60BD4680BDC046004006405A
:1014F00000700440041000003810000000B00440E8
:1015000080B500AF034B1B685A1C024B1A60BD46E6
:1015100080BDC04608F2FF1F80B500AF024B1B68BC
:10152000181CBD4680BDC04608F2FF1F1201100105
:1015300002000020A2150FA5000001020301000017
:10154000040309041403460072006500650073007B
:10155000630061006C0065001203550053004200F7
:101560002D005500410052005400000012035400A9
:101570004500530054005F0031002E003000000091
:1015800009024300020100C0320904000001020206
:1015900001010524001001052401000104240200BA
:1015A000052406000107058103200002090401004B
:1015B000020A00000107058202200000070503025D
:1015C000200000002020202020202020202020207B
:1015D00020202020A20A0000B60A0000B60A00005F
:1015E000B60A0000B60A0000E4090000F60900008F
:0C15F000B60A0000940A0000540A000033
:1015FC00B0F4FF1F5CF5FF1F3CF5FF1F84F6FF1FC7
:10160C0048F4FF1F24F4FF1F90F4FF1FF4F4FF1F96
:10161C00E4F6FF1F18F5FF1F6CF4FF1F80F5FF1F8A
:10162C00C4F6FF1F00F4FF1FA4F6FF1FD4F4FF1F26
:10163C004015000044150000581500006C15000002
:04164C000100000099
:0400000300000410E5
:00000001FF
