:1000000090070020F116000075170000751700001A
:1000100000000000000000000000000000000000E0
:100020000000000000000000000000007517000044
:100030000000000000000000751700005D170000C0
:100040007517000075170000751700007517000080
:1000500000000000751700007517000075170000FC
:100060007517000075170000751700007517000060
:100070007517000075170000751700007517000050
:100080007517000075170000751700007517000040
:1000900075170000751700007517000000000000BC
:1000A000691700007517000075170000751700002C
:1000B000751700000000000075170000751700009C
:10040000FFFFFFFFFFFFFFFFFFFFFFFFFEFFFFFFFD
:1004100080B584B000AF786039607B68FB6005E030
:10042000FB680133FB603B68013B3B603B68002B92
:1004300003D0FB681B78002BF2D1FA687B68D31AD3
:10044000181CBD4604B080BD80B584B000AFF86014
:10045000B9607A601FE0FB681A78BB681B789A4223
:100460000AD0FB681A78BB681B789A4202D2012333
:100470005B4214E0012312E0FB681B78002B01D1E2
:1004800000230CE0FB680133FB60BB680133BB60F9
:100490007B68013B7B607B68002BDCD10023181C50
:1004A000BD4604B080BDC046B0B584B000AF786032
:1004B0007B681533FB60FA68A5239B000021D154AB
:1004C0007B681B680B4A101C022198477B681C68DC
:1004D0007B68DD687B68DA688023DB00101C191CF0
:1004E000FFF796FF031C281C191CA047BD4604B04B
:1004F000B0BDC0465C2D0000B0B584B000AF7860E0
:100500007B681B68284A101C022198477B681C687E
:10051000264A8023DB00101C191CFFF779FF021C00
:10052000224B181C111CA0477B681B681E4A101C1C
:10053000022198477B681C681D4A8023DB00101C41
:10054000191CFFF765FF021C194B181C111CA04752
:100550000023FB6020E07B681B68134A101C02210B
:1005600098477B681C687B685A68FB68DB00D31877
:100570001D687B685A68FB68DB00D3181A68802303
:10058000DB00101C191CFFF743FF031C281C191C5F
:10059000A047FB680133FB607B689A68FB689A425E
:1005A000D9D8BD4604B0B0BD5C2D0000602D000060
:1005B000642D0000B0B58EB000AF786039600023C4
:1005C0007B6300233B633A68464B101C191C01F007
:1005D0004BFC011C0823FB187A6B9200D1500DE0F4
:1005E0007B6B01337B633F4B0020191C01F03CFC0B
:1005F000011C0823FB187A6B9200D1507B6B092BEE
:1006000006D80823FB187A6B9200D358002BE7D149
:100610000823FB181A6834498023DB00081C111CCE
:100620001A1CFFF711FF031E0CD00823FB181A68D1
:100630002E498023DB00081C111C1A1CFFF704FF45
:10064000031E04D17B68181CFFF756FF29E0002326
:100650003B6321E07B685A683B6BDB00D318196869
:100660000823FB181A688023DB00081C111C1A1CC5
:10067000FFF7EAFE031E0CD17B685A683B6BDB0078
:10068000D3185B68796B0822BA18081C111C9847AC
:1006900007E03B6B01333B637B689A683B6B9A4294
:1006A000D8D83B6B002B1AD07B689A683B6B9A4278
:1006B00015D17B681B680E4A101C022198477B6885
:1006C0001C687B681D697B681A698023DB00101C2D
:1006D000191CFFF79DFE031C281C191CA047BD46D2
:1006E0000EB0B0BD6C2D0000602D0000642D000028
:1006F0005C2D000080B582B000AF78607B68181C6C
:10070000FFF7D2FE0023181CBD4602B080BDC046D4
:1007100080B58AB000AFF860B9607A607B68002B62
:1007200001D100239DE0FB681533BB611723FB1843
:10073000BA6812781A701723FB181722BA181278A1
:100740001A70BB69A52292009A188023DB00101C46
:10075000191CFFF75DFE031C7B627B6A7F22D31AA4
:100760003B627AE01F23FB1800221A70BB681B78DB
:100770000A2B08D002DC082B1BD031E00D2B02D055
:100780007F2B16D02CE07B6A002B09D0BB69A522F9
:10079000920094466344FA68101C191CFFF70AFF84
:1007A000FB68181CFFF780FE00237B627F233B62FF
:1007B0003EE07B6A002B12D01F23FB1801221A7027
:1007C0007B6A013B7B62B969A4239B007A6A8A1821
:1007D000D31800221A713B6A01333B6228E027E0FC
:1007E000BB681B781F2B22D9BB681B787E2B1ED8B9
:1007F0003B6A002B1BD01F23FB1801221A707B6A57
:100800005A1C7A62BA681078B969A4229200CB188F
:100810009B18021C1A71B969A4239B007A6A8A1872
:10082000D31800221A713B6A013B3B62FFE7C046C6
:100830001F23FB181B78002B09D0FB681B7D002BA6
:1008400005D0FB681B68BA68101C01219847BB687B
:100850000133BB607B68013B7B607B68002B81D1EF
:100860000023181CBD460AB080BDC04680B582B0CA
:1008700000AF78607B68202B25DC1448134AC02326
:100880005B00D2587B6812490B4004D5013B202104
:1008900049420B430133191C01238B401A43C023E7
:1008A0005B00C250094A094B19687B68084803403D
:1008B00004D5013B2020404203430133181C01238F
:1008C00083400B431360BD4602B080BD00E100E0F1
:1008D0001F00008080B582B000AF021CFB1D1A70A3
:1008E000FB1D1B78012B0DD0022B1FD0002B32D10A
:1008F0001F491F4A1F4BD358A022D20213431D4A3F
:100900008B5028E000F042F81949194A194BD35886
:10091000194A1340174A8B501549154A154BD3589D
:100920008022D2021343134A8B5014E01049104A1C
:10093000104BD358114A13400E4A8B500C490C4AA5
:100940000F4BD3588022920013430D4A8B500D4B0E
:10095000802292005A610649054A0B4BD3588022E7
:10096000D2021343084A8B50BD4602B080BDC04638
:100970000070044004100000FFFFFEFFFFFFFBFFBC
:1009800038100000009004403410000080B500AF23
:10099000BD4680BD80B582B000AF78600A1CFB1CEC
:1009A0001A70FB1C1B78013B7A68D2180A4B1A603C
:1009B0000A4B7A681A600A4BFA1C12781A70094BB3
:1009C0007A681A60084B7A681A60084B00221A701D
:1009D000BD4602B080BDC04618F2FF1F20F2FF1FC7
:1009E00029F2FF1F24F2FF1F1CF2FF1F28F2FF1F36
:1009F00080B500AF3C4B1A683C4B1A603C4B002260
:100A00001A700120FFF766FF1820FFF72FFF394902
:100A1000384A86235B00D35CDBB280225242134308
:100A2000DAB286235B00CA54C046324A86235B0092
:100A3000D35CDBB2DBB25BB2002BF6DB2D4A2E4B74
:100A40001B0AD9B29C23D1542A4A2B4B1B0CD9B276
:100A5000B023D154274A284B1B0ED9B2B423D1540A
:100A6000244A24498023CB5CDBB202210B43D9B258
:100A70008023D1541F4A1F498423CB5CDBB2012160
:100A80000B43D9B28423D1541A4A1A4980235B00FC
:100A9000CB5CDBB23F210B40D9B280235B00D15449
:100AA000144A144986235B00CB5CDBB240210B4324
:100AB000D9B286235B00D1540E4A0E499423CB5CF5
:100AC000DBB201210B43D9B29423D154094A09491D
:100AD00084235B00CB5CDBB210210B43D9B28423AF
:100AE0005B00D154BD4680BD00F0FF1F44F4FF1FE2
:100AF0007CF5FF1F0020074000F6FF1F80B586B081
:100B000000AF3960111CFB1D021C1A70BB1D0A1CB2
:100B10001A701023FB1800221A800F23FB18FA1DED
:100B200012781A70FB1D1B78002B04D0FB1DFA1DD8
:100B3000127892001A70FB1DFA1D127802321A7098
:100B4000FB1D1A785A4B9200D3587B61594B1B7886
:100B50001A1C0123134025D0574B3A681A60574B93
:100B6000BA1D12781A70564B1B68DB799BB21B02B8
:100B700099B2534B1B689B799AB21023FB188A18C1
:100B80001A80BB1D1B789BB21022BA1812889A4299
:100B900008D2FB1D1B78022B04D1494B1B689A79A4
:100BA000464B1A70FB1D1B78464AD25C434B1B78A0
:100BB0009A4218D2FB1D1A781323FB1841498A5C0C
:100BC0001A703E4B1A78FB1D1B783E49CB5CD31A3A
:100BD000DAB23A4B1A70374B1B7801229343DAB2E0
:100BE000344B1A700EE01323FB18344A12781A7033
:100BF000324B00221A702F4B1B7801221343DAB2BA
:100C00002C4B1A70FB1D1B781322BA18127891B264
:100C10002D4ADB00D3180A1C5A8009E07B695A1C54
:100C20007A61254A1268501C2349086012781A70AC
:100C30001323FB181B781322BA18591E1170002BAE
:100C4000ECD1224B1B781A1C0F23FB181B78DA40BF
:100C5000131C0122134015D0FB1D1A781A4BD20029
:100C60008821D1540F23FB181B7801229A40131CB2
:100C7000DBB2DB43DBB2154A12781340DAB2134B16
:100C80001A7012E0FB1D1A780F4BD200C821D15404
:100C90000F23FB181B7801229A40131CDAB20B4B6E
:100CA0001B781343DAB2094B1A70BD4606B080BDFB
:100CB00000F0FF1F38F5FF1F80F6FF1F20F4FF1F15
:100CC00044F4FF1F082E000000F6FF1FD0F4FF1FA2
:100CD00080B584B000AF021C3960FB1D1A70FB1D8B
:100CE0001A78FB1D01321A70FB1D1A78144B920002
:100CF000D358FB60FB1D1B78124ADB00D3185A88BF
:100D00000B23FB181A70FB1D0B22BA1812781A70ED
:100D100007E03B685A1C3A60FA68511CF960127887
:100D20001A700B23FB181B780B22BA18591E11706E
:100D3000002BEED1FB1D1B78181CBD4604B080BDF6
:100D400000F0FF1F00F6FF1F80B584B000AF021C4B
:100D5000FB1D1A70FB1D1B789B000F4ADB00D3188C
:100D60005B881B0A9BB2D9B2FB1D1B789B000A4A09
:100D7000DB00D3185B881B02DBB20A1C1343DAB218
:100D80000F23FB181A700F23FB181B789BB2181C3B
:100D9000BD4604B080BDC04600F6FF1F80B500AF61
:100DA0001C4AC4230521D1541A4AC8230521D15411
:100DB000184ACC230921D154164AD0230121D154F9
:100DC000144AD4230121D154124AD8230121D154E9
:100DD000114B3022002199540F4B00225A860F4AA2
:100DE0000D4B5A630C4B5022002199540A4B52224E
:100DF000002199520A4A084B5A65074B602280210C
:100E00009954054B6222FF219952064A024B5A66B9
:100E1000BD4680BD0020074000F6FF1F90F4FF1F75
:100E20006CF4FF1FC4F6FF1F80B500AF3B4B1B687F
:100E30005B78092B6DD89A00394BD3181B689F46F5
:100E4000002000210022FFF759FE364B03221A70C2
:100E500062E0324B1B68DB78022B0AD0032B0FD0E9
:100E6000012B21D1304B0020191C1222FFF746FE26
:100E70001DE02E4B0020191C4322FFF73FFE16E019
:100E8000264B1B689B781A1C294B9200D158234B88
:100E90001B689B781A1C264B9200D3581B780020A5
:100EA0001A1CFFF72BFE02E000F060F9C04633E0A9
:100EB0001A4B1B68DA78194B1B689B78D318DAB287
:100EC0001C4B1A70154B1B68DB781A1C134B1B68E4
:100ED0009B78D318002B0AD0FFF760FF0020002179
:100EE0000022FFF70BFE0F4B01221A7014E013E0F3
:100EF000104B0020191C0122FFF700FE0CE00E4BE6
:100F000000221A800C4B0020191C0222FFF7F6FD6C
:100F100002E000F02BF9C046BD4680BD44F4FF1F3F
:100F2000182E00007CF5FF1F702D0000C42D00005E
:100F300040F0FF1F7DF5FF1F8CF4FF1F90B583B0BD
:100F400000AF234B1B7801229343DAB2204B1A7077
:100F5000204B1B681B781A1C1F231340012B10D039
:100F6000022B1FD0002B23D11A4B1B681B781A1C95
:100F70001F23134001D1FFF757FF174B88221A7028
:100F800019E0FC1D00F0C8FA031C2370FB1D1B7840
:100F9000002B03D1104B88221A700CE00E4BC82294
:100FA0001A7008E000F01CF80B4B88221A7002E05F
:100FB00000F0DCF8C046094A08499423CB5CDBB258
:100FC00020218B43D9B29423D154BD4603B090BDA8
:100FD000D0F4FF1F44F4FF1F00F6FF1F002007405E
:100FE00080B582B000AF274B1B685B78012B1ED009
:100FF000032B31D0002B00D041E0234B1B781A1C6F
:10100000204B1B685B79DA40131C0122134004D08B
:10101000BB1D802252001A8002E0BB1D00221A80F4
:10102000BB1D0020191C0222FFF768FD27E0154BAD
:101030001B685B791A1C01239340DBB2DB43DBB2F4
:10104000114A12781340DAB20F4B1A7000200021B7
:101050000022FFF753FD12E00A4B1B685B791A1C54
:1010600001239340DAB2084B1B781343DAB2064BE4
:101070001A70002000210022FFF740FDC046BD4647
:1010800002B080BD44F4FF1F68F4FF1F80B582B03A
:1010900000AF204A9023D35CDAB2FB1D08210A403E
:1010A0001A701C4A9023D35CDAB2BB1D12091A7065
:1010B000BB1D1B78002B17D0FB1D1B78002B26D1E6
:1010C000BB1D1B789A00144BD2000021D154BB1DCC
:1010D0001B7801229A40131CDAB2104B1B78134381
:1010E000DAB20E4B1A7012E0FB1D1B78002B02D0F7
:1010F00000F016F80BE0084B1B783C221340DBB2E3
:10110000342B02D1FFF71AFF01E000F047F8BD468B
:1011100002B080BD0020074000F6FF1F14F5FF1F3E
:1011200080B500AF0D4B1B78032B0FD10C4A0D4B34
:101130001B6899789823D154084B04221A700A4BE3
:101140001B7801221343DAB2074B1A7000200021EA
:101150000022FFF7D3FCBD4680BDC0467CF5FF1FD3
:101160000020074044F4FF1F38F5FF1F80B500AF93
:10117000084A0849C023CB5CDBB202210B43D9B239
:10118000C023D154044B88221A70034B20225A806A
:10119000BD4680BD0020074000F6FF1F80B500AFB0
:1011A000054B1B7801221343DAB2034B1A70034B31
:1011B00088221A70BD4680BD14F5FF1F00F6FF1F80
:1011C00080B500AF0F4AC023D35CDBB21A1C0223E8
:1011D000134009D00B4A0B49C023CB5CDBB2022180
:1011E0008B43D9B2C023D1540649064A8023D35C2D
:1011F000DBB2802252421343DAB28023CA54BD4686
:1012000080BDC0460020074080B500AF414BFF22A3
:101210001A70414B00221A70404B00221A70404A4B
:10122000C4230021D1543E4AC8230021D1543C4A52
:10123000CC230021D1543A4AD0230021D154384A3A
:10124000D4230021D154364AD8230021D154354B20
:1012500020225A80344A334B5A60324BC8221A70CB
:10126000304B20225A81314A2E4BDA602D4BC82256
:101270001A722C4B20225A822D4A2A4B5A61294B32
:1012800088221A74274B20225A832A4A254BDA6176
:10129000244B88221A76224AC0230D21D154204A99
:1012A0008823FF21D1541E4A8023FF21D1541C4A98
:1012B00098230021D1541A4A8C23FF21D154184A73
:1012C00017498423CB5CDBB208210B43D9B28423BA
:1012D000D154134A12498423CB5CDBB204210B4363
:1012E000D9B28423D1540E4A0D498423CB5CDBB29E
:1012F00002210B43D9B28423D154094A08498423DB
:10130000CB5CDBB201210B43D9B28423D154BD465F
:1013100080BDC04638F5FF1FD0F4FF1F69F4FF1FE2
:101320000020074000F6FF1FB0F4FF1F5CF5FF1F11
:101330003CF5FF1F84F6FF1F80B500AF2A4A8023CB
:10134000D35CDBB21A1C0123134002D0FFF75CFF11
:1013500048E0254A8023D35CDBB21A1C04231340E7
:1013600003D0214A80230421D1541F4A8023D35C17
:10137000DBB2DBB25BB2002B01DAFFF721FF1A4AC6
:101380008023D35CDBB21A1C0823134015D0164A05
:1013900015499423CB5CDBB202210B43D9B29423D1
:1013A000D154FFF773FE104A0F498023CB5CDBB2A8
:1013B00008210B43D9B28023D1540B4A8023D35C3C
:1013C000DBB21A1C1023134009D0074A06498023B8
:1013D000CB5CDBB210210B43D9B28023D154024A3B
:1013E0008023D35CBD4680BD0020074080B500AFA0
:1013F0000F4B00221A70FFF7FBFA0E4B0D4AD26911
:10140000C02189000A43DA610B4B962292011A60CF
:10141000094B00221A71084B00225A71064B082210
:101420009A71064B181C8021FFF7B4FABD4680BDA7
:1014300000F2FF1F00B0044004F7FF1F0CF7FF1F6E
:1014400080B500AF2D4B1B78DBB21A1C0223134072
:1014500019D02B4A2A499423CB5CDBB202210B43DF
:10146000D9B29423D154274B00221A70264B012263
:101470001A70FFF7BBFF214B1B78DBB202229343AC
:10148000DAB21E4B1A701F4B1B78202B15D0222B63
:101490002CD0002B01D02FE004E0C0461B4B1B7862
:1014A000012BF9D1184B1B78002B02D0164B0022D0
:1014B0001A70144B00221A701EE0154B1B781A1C70
:1014C0000123134011D0124B1B7801229343DAB24F
:1014D0000F4B1A700F4B0020191CFFF7F9FB00206F
:1014E00000210022FFF70AFB06E005E000200021B2
:1014F0000022FFF703FBC046BD4680BD01F2FF1F7F
:101500000020074000F2FF1F50F0FF1F7CF5FF1F77
:1015100014F5FF1F04F7FF1F80B582B000AFFB1D5D
:1015200000221A70214B1B685B78212B11D004DC40
:101530000A2B07D0202B13D031E0222B17D0AA2B57
:101540001CD02CE01A4B0020191C0122FFF7D6FA00
:1015500025E0184B0020191C0722FFF7CFFA1EE0E8
:10156000154B20221A70FB1D01221A7017E0124B36
:1015700022221A70FB1D00221A7010E00F4B181C5B
:101580008021FFF707FA0E4B1B788022524213434B
:10159000DAB20B4B1A70094BFF221A70C046FB1DC2
:1015A0001B78181CBD4602B080BDC04644F4FF1F26
:1015B00015F5FF1F04F7FF1F00F2FF1F0CF7FF1FB9
:1015C00014F5FF1F80B500AF164B164A52688021F4
:1015D00049040A435A60134B124A126880210906D3
:1015E0000A431A600F4B0F4A52688021C9040A430C
:1015F0005A600C4B0B4A12688021C9050A431A60D5
:10160000084B084A5268802189040A435A60054BF6
:10161000044A1268802189050A431A60FFF7E6FE32
:10162000BD4680BD0070044080B584B000AF7860D6
:1016300001235B42FB60FFF703FF114B1B781A1C71
:101640000823134017D00320FFF77EFB0D4B6222C7
:10165000202199520B4B602280219954084B1B7812
:1016600008229343DAB2064B1A70074B1A787B684C
:101670001A700123FB60FB68181CBD4604B080BDD6
:1016800014F5FF1F00F6FF1FC4F6FF1F80B582B0E0
:1016900000AF78600A1CFB1C1A707A68FB1C1B7870
:1016A0000220111C1A1CFFF729FABD4602B080BDAA
:1016B00080B582B000AF78607B680B4A934201D955
:1016C00001230CE0094B7A681202120A013A5A60AF
:1016D000064B00229A60054B07221A600023181C53
:1016E000BD4602B080BDC046FFFFFF0010E000E035
:1016F00080B582B000AF00F02FFA124B7B60124B26
:101700003B6007E03B681A1D3A607A68111D7960FA
:1017100012681A603A680D4B9A42F3D30C4B3B6047
:1017200004E03B681A1D3A6000221A603A68094BCF
:101730009A42F6D3084B181CFFF7BAFF00F076F96F
:10174000FEE7C046742F000000F0FF1FB8F0FF1F37
:1017500000F2FF1F90F7FF1F80BB000080B500AFB5
:1017600000F02CFABD4680BD80B500AFFFF7E4FD68
:10177000BD4680BD80B500AF00BEFEE780B584B039
:1017800000AF7860114B1B68002B02D10F4B104A41
:101790001A600E4B1B68FB600C4B1A687B68D218F2
:1017A0000C4B9A4207D900F0B1FA031C0C221A60C4
:1017B00001235B4206E0054B1A687B68D218034B95
:1017C0001A60FB68181CBD4604B080BD04F2FF1F00
:1017D00090070020900B002080B500AF0E4A8823B0
:1017E0005B010021D1500C490B4A0C4BD35880228D
:1017F000D2001343094A8B50094B802252001A60D1
:10180000084B01229A60074B064A526901210A439C
:101810005A61BD4680BDC0460070044038100000CB
:1018200000A0044040F00F4080B584B000AF786065
:1018300000F0D0F9031CFB60C04600F0CBF9021C9D
:10184000FB68D21A7B689A42F7D3BD4604B080BDCC
:1018500080B582B000AF20491F4A204BD358802268
:10186000920013431D4A8B501B491B4A1C4BD358F3
:101870008022D20013431A4A8B501749164A194B3B
:10188000D3588022D2041343164A8B50164B802221
:1018900092005A60144B802292009A60134B134AB4
:1018A000526904210A435A61114B18229A72C823C3
:1018B0007B600F4A7B681B0ADBB21F210B40DBB247
:1018C00013700B4B7A68D2B25A70094B0C22DA7043
:1018D000BD4602B080BDC046007004403810000014
:1018E00034100000041000000090044000F00F408D
:1018F00000A0064080B500AF00F06CF9021C074B59
:101900001B68D31AFA2B07D900F064F9021C034BA9
:101910001A60034B0122DA60BD4680BD08F2FF1F4A
:1019200040F00F4080B582B000AF7860094B1B7962
:10193000DBB21A1C2023134006D0064BDB79DAB247
:101940007B681A70012301E001235B42181CBD462D
:1019500002B080BD00A0064080B584B000AF7860C2
:1019600039600023FB600CE00220FFF75DFF7A681E
:10197000FB68D318181C0121FFF788FEFB680133B0
:10198000FB60FA683B689A42EED3BD4604B080BD66
:1019900080B584B000AFF860B9607A60BA687B68DF
:1019A000101C191CFFF7D8FF7B68181CBD4604B03B
:1019B00080BDC04680B584B000AF78603960104A01
:1019C0007B68101C191C00F0AFF90023FB600CE0D1
:1019D000FB689B003A68D3181B680A4A101C191C44
:1019E00000F0A2F9FB680133FB60FA687B689A4259
:1019F000EEDB054B181C00F02DFABD4604B080BD8F
:101A00004C2E0000682E00006C2E000080B582B0C5
:101A100000AF78603960044A7B68101C191C00F024
:101A200083F9BD4602B080BD702E000090B5434CD6
:101A3000A54400AF01235B42D1229200BA18136083
:101A4000FFF7CAFEFFF704FFFFF7BCFDCC239B00A6
:101A5000FB183B4A13CA13C312681A60394BD222CF
:101A600092009446BC4463441A1CCB239B00101C78
:101A700000211A1C00F050F9324BD22292009446F9
:101A8000BC446344304A1A602E4BD22292009446E2
:101A9000BC446344CC229200BA185A60294BD2222B
:101AA00092009446BC44634402229A60254BD222A1
:101AB00092009446BC446344244ADA60214BD2220B
:101AC00092009446BC446344214A1A611D4BD222C1
:101AD00092009446BC44634401221A753B1D181CB5
:101AE000FEF708FEFFF706FF1A4BFB18181CFFF75E
:101AF0009BFD031CD1229200BA181360D1239B00D6
:101B0000FB181B68013309D1124BFB18181CFFF797
:101B100009FF031CD1229200BA181360D1239B0045
:101B2000FB181B68002B07DD3A1D0A4BFB18101C25
:101B3000191C0122FEF7ECFDD4E7C046B4FCFFFF00
:101B4000C82E0000BCFCFFFF591900008C2E0000BD
:101B5000942E00004303000080B500AF1249124BE1
:101B6000DB78DBB21F221340DBB260225242134308
:101B7000DBB2CB700D490D4A0D4BD358E022934395
:101B8000402213430A4A8B500849084A094BD3584C
:101B9000802212011343074A8B50074BA822D20020
:101BA000DA60BD4680BDC04600400640007004407B
:101BB000041000003810000000B0044080B500AFF1
:101BC000034B1B685A1C024B1A60BD4680BDC046C1
:101BD0000CF2FF1F80B500AF024B1B68181CBD46FE
:101BE00080BDC0460CF2FF1F002243088B4274D315
:101BF00003098B425FD3030A8B4244D3030B8B420E
:101C000028D3030C8B420DD3FF22090212BA030C16
:101C10008B4202D31212090265D0030B8B4219D3F7
:101C200000E0090AC30B8B4201D3CB03C01A524117
:101C3000830B8B4201D38B03C01A5241430B8B425F
:101C400001D34B03C01A5241030B8B4201D30B0348
:101C5000C01A5241C30A8B4201D3CB02C01A52416F
:101C6000830A8B4201D38B02C01A5241430A8B4232
:101C700001D34B02C01A5241030A8B4201D30B021B
:101C8000C01A5241CDD2C3098B4201D3CB01C01A35
:101C9000524183098B4201D38B01C01A524143093F
:101CA0008B4201D34B01C01A524103098B4201D32D
:101CB0000B01C01A5241C3088B4201D3CB00C01A9A
:101CC000524183088B4201D38B00C01A5241430812
:101CD0008B4201D34B00C01A5241411A00D2014637
:101CE000524110467047FFE701B5002000F00CF8A4
:101CF00002BDC0460029F7D003B5FFF775FF0EBC43
:101D00004243891A1847C0467047C046014B1868BD
:101D10007047C046B4F0FF1F031C8218934202D0E4
:101D200019700133FAE770470FB40B4B13B51C68F9
:101D3000002C05D0A369002B02D1201C00F0BAFAB8
:101D400005AB201CA168049A019300F06DFC16BC41
:101D500008BC04B01847C046B4F0FF1F70B5051C9E
:101D60000E1C002804D08369002B01D100F0A2FAD8
:101D7000AB69AC68002B02D1281C00F09BFA324BF7
:101D80009C4201D16C6808E0304B9C4201D1AC68A8
:101D900003E02F4B9C4200D1EC68A3891B0702D5BE
:101DA0002369002B19D1281C211C00F017F90028E9
:101DB00013D00120404245E03178002B1BDAA269A4
:101DC000934211DA221C281C00F0B0F80130424284
:101DD0004241D0B20028ECD10136A3683278013BF1
:101DE000A360002AE8D10CE02368197023681978F1
:101DF0000A2903D1E6E723681970236801332360B9
:101E0000EAE7002B17DAA269934208DB0A2322686B
:101E10001370236819780A2911D1281C01E0281CA5
:101E20000A21221C00F082F8013042424241D0B225
:101E3000002806D0BDE70A23226813702368013307
:101E400023600A2070BDC046E02E0000002F000075
:101E5000202F000008B5034B011C1868FFF77EFF18
:101E600008BDC046B4F0FF1FF8B5174B071C1D682E
:101E70000E1CAC6D002C1FD1502000F005FBA86596
:101E80008460AB6D046044601C61DC60AB6D9C6180
:101E90005C61AB6DDC629C62AB6D5C631C63AB6DC3
:101EA000DC639C63AB6D5C641C64AB6DDC649C6444
:101EB000AB6D1C77AB6D5C62381C311CAA6D0123C5
:101EC00000F004F8F8BDC046B4F0FF1FF0B5041EE2
:101ED0000CD11468201E09D126E03778002F0CD0D1
:101EE0000136B842F9D1002B04D02C1C651C207897
:101EF0000E1CF2E71560237015E0002808D1106071
:101F000012E00778B74207D00130002FF9D11D1C2D
:101F10006B1C2E78081CF4E7002E02D000212970DB
:101F200000E0331C1360201CF0BD000070B5051CE0
:101F30000E1C141C002804D08369002B01D100F072
:101F4000B9F9234B9C4201D16C6808E0214B9C42BB
:101F500001D1AC6803E0204B9C4200D1EC68A3693E
:101F6000A360A3891B070AD52369002B07D0236828
:101F70002269F6B2981A636998420FDB08E0281CC0
:101F8000211C00F02BF80028F1D0012040421DE078
:101F9000281C211C00F020F90028F6D1A36801308C
:101FA000013BA36023685A1C22601E70636998423B
:101FB00005D0A389301CDB0708D50A2E06D1281CC2
:101FC000211C00F009F90028DFD1301C70BDC0468B
:101FD000E02E0000002F0000202F0000354B70B5D0
:101FE0001D68061C0C1C002D05D0AB69002B02D10E
:101FF000281C00F05FF9304B9C4201D16C6808E06E
:102000002E4B9C4201D1AC6803E02D4B9C4200D189
:10201000EC68A3899AB2110723D4D10607D4092208
:102020000120326037321343A381404240E053071E
:1020300013D5616B002908D0231C4433994202D088
:10204000301C00F02BFA002363632422A3899343FE
:10205000A38100236360236923600822A3891343BB
:10206000A3812369002B0BD1A023A2899B001340DD
:1020700080229200934203D0301C211C00F0ACF966
:102080000123A289134005D00023A36063695B424A
:10209000A36103E0910700D46369A3600020236972
:1020A000834205D1130603D540231A43A281013888
:1020B00070BDC046B4F0FF1FE02E0000002F0000EE
:1020C000202F0000F7B58A89051C0C1C13075ED46D
:1020D0004B68002B02DC0B6C002B1ADDE76A002F2B
:1020E00017D000232E682B6080235B011A4001D09B
:1020F000626D15E0281C216A0123B847021C431CAD
:102100000ED12B68002B0BD01D2B01D0162B02D12A
:102110002E6000205EE04021A3890B43A38159E09B
:10212000A3895B0706D56368D21A636B002B01D0C5
:10213000236CD21A0023281C216AE76AB847A389B6
:10214000421C06D12A68002A03D01D2A01D0162A73
:1021500019D10022626022692260DB0405D5431C8C
:1021600002D12B68002B00D16065616B2E600029C5
:10217000CFD0231C4433994202D0281C00F08EF9A2
:102180000020606326E040221343A38122E00F6910
:10219000002FBED00B680F60DB1B0193002392075A
:1021A00000D14B69A360019B002BB2DD281C216A82
:1021B0003A1C019BA66AB047002806DC4022012099
:1021C000A38940421343A38104E0019B3F181B1ADB
:1021D0000193E8E7FEBD000038B50B69051C0C1C37
:1021E000002B01D100201CE0002804D08369002BC3
:1021F00001D100F05FF80B4B9C4201D16C6808E004
:10220000094B9C4201D1AC6803E0084B9C4200D1D1
:10221000EC680C22A35E002BE4D0281C211CFFF7E5
:1022200051FF38BDE02E0000002F0000202F0000DD
:1022300008B5024900F0AEF808BDC046D92100003B
:10224000002310B5041C03604360836081814366F2
:10225000C281036143618361191C08225C30FFF76E
:102260005BFD054B24626362044BA362044BE36293
:10227000044B236310BDC046792B0000A12B000046
:10228000D92B0000052C000070B568254B1E5D435E
:102290000E1C291C743100F047F9041E08D00021DF
:1022A0002A1C016046600C30A0606832FFF734FDE4
:1022B000201C70BD836913B5002B28D18364C364CF
:1022C0000365134B134A1B6882620193984201D144
:1022D00001238361041C00F01FF86060201C00F0E3
:1022E0001BF8A060201C00F017F80421E060002219
:1022F0006068FFF7A5FFA06809210122FFF7A0FF92
:10230000E06812210222FFF79BFF0123A36113BDA6
:10231000DC2E000031220000F8B51D4B061C1D68A4
:10232000AB69002B02D1281CFFF7C4FF4835AC680D
:102330006B68013B05D40C22A75E002F10D06834D7
:10234000F7E72B68002B06D1301C0421FFF79CFF18
:102350002860002801D02D68E9E70C23336016E0DF
:102360000123201C5B42E3810233A381676627605F
:10237000A760676027616761A7615C30391C08222C
:10238000FFF7CAFC201C6763A763A764E764F8BD76
:10239000DC2E0000F7B5041C071C00260191483410
:1023A000002C16D06368A5680093009B013B009346
:1023B0000DD4AB89012B08D90E22AB5E013304D0BA
:1023C000381C291C019B984706436835EDE72468B3
:1023D000E6E7301CFEBD0000F0B58B8991B09B078D
:1023E00006D50B1C47330B600B6101234B6145E0A5
:1023F0000C1C0E23C95E061C002904DA8023A58963
:102400001D4010D10CE001AA00F028FC0028F5DBEB
:10241000F023029D1B021D40194BED186B425D41DC
:102420008027FF0001E000254027301C391C00F008
:102430007BF800280CD1A3899A051FD402221343EC
:10244000A381231C4733236023610123636115E0CB
:1024500080220C4BB362A38920601343A3812061C7
:102460006761002D0AD00E23E15E301C00F008FCED
:10247000002803D00122A3891343A38111B0F0BD2A
:1024800000E0FFFF3122000008B5034B011C186873
:1024900000F04AF808BDC046B4F0FF1F30B500296F
:1024A0003ED004390B68002B00DAC9181D4A1368A6
:1024B000141C002B02D14B60116031E099420DD207
:1024C00008680A189A4203D11368C3180B6053684E
:1024D0004B60216024E08A4203D8131C5A68002A0A
:1024E000F9D11D685C198C420BD10968691858181C
:1024F0001960904214D110685268091819605A6026
:102500000EE08C4202D90C23036009E008680C1825
:10251000944203D114685268001908604A605960F7
:1025200030BDC04614F2FF1F032370B5CC1C9C4382
:102530000834051C0C2C01D20C2405E0002C03DA15
:102540000C2300202B6042E08C42F9D3204A136810
:10255000101C191C002913D00A68121B0DD40B2A59
:1025600002D90A608B181FE08B4202D15A680260C0
:102570001BE04A685A600B1C17E00B1C4968E9E72E
:10258000144E3368002B03D1281C00F0E3FA3060AE
:10259000281C211C00F0DEFA031C421CD0D00322B0
:1025A000C61C964386420AD11C60181C07210B30BA
:1025B0001A1D8843821A0AD05142995007E0311AF5
:1025C000281C00F0C7FA431CBAD0331CECE770BDDE
:1025D00014F2FF1F10F2FF1F936810B5013B9360C8
:1025E000002B05DA9469A34208DBCBB20A2B05D095
:1025F0001368581C10601970C8B201E0FFF796FC10
:1026000010BDF8B5061C0F1C141CD518AC4208D020
:102610002178301C3A1CFFF7DFFF0134431CF5D151
:1026200000E00020F8BD0000F0B59FB0061C0F1CB4
:1026300002920593002804D08369002B01D1FFF793
:1026400039FE794B9F4201D1776808E0774B9F4272
:1026500001D1B76803E0764B9F4200D1F768BB8990
:102660001B070AD53B69002B07D0002306AD6B6121
:1026700020336B761033AB763DE0301C391CFFF70E
:10268000ADFC0028F1D001204042CAE0059A111D9E
:1026900012680591002A7EDB0992013423782E2BE3
:1026A00000D189E021786348032200F00FFB002865
:1026B00008D0604B0134C01A40238340181C2B689B
:1026C000184328602178631C5B4806220293297610
:1026D00000F0FCFA002800D191E0584B002B00D00C
:1026E00084E00722059B07339343083305936B6906
:1026F000039A9B186B61029C2378002B04D1029BE8
:10270000E31A049311D003E0252BF8D00134F3E74A
:10271000049B301C391C029AFFF773FF431C7BD0CB
:102720006A69049B944663446B612378002B73D0E1
:102730000122002352426A6002A954325218013425
:102740002B60EB60AB601370AB6521783C480522D1
:1027500000F0BCFA002809D0394B0134C01A01231B
:102760008340181C2B6818432860EEE72B68DA06B4
:1027700004D55322202102A8121811701A0704D57B
:1027800053222B2102A81218117022782A2A00D174
:102790007CE7099B05E05242EA60022213432B606A
:1027A0007BE72278303A092A04D80A214B430134C6
:1027B0009B18F6E7099371E763782A2B09D1059BEB
:1027C00002341A1D1B680592002B0DDA01235B42AF
:1027D0000AE0002301342278303A092A04D80A2179
:1027E0004B4301349B18F6E707935BE705AB009377
:1027F000301C291C3A1C134B00E000BF07E005AB5E
:102800000093301C291C3A1C0E4B00F08BF80390EF
:10281000039B013300D06AE7BB895B0600D532E732
:102820000B981FB0F0BDC046E02E0000002F000046
:10283000202F0000462F00004A2F0000000000005B
:10284000402F000003260000F7B5171C01930A690A
:102850008B6800900C1C934200DA131C221C3B6016
:1028600043321278002A01D001333B6023689B0673
:1028700002D53B6802333B60062523681D401ED00D
:10288000231C43331B785A1E9341226892061CD5A1
:102890003020E1184031C870211C5A1C453109789C
:1028A000A21840320233D1700FE0221C012300989D
:1028B00001991932089EB047431C0ED00135E368D8
:1028C0003A689B1A9D42F0DBDAE7221C00980199D6
:1028D0004332089DA847431C02D10120404220E01A
:1028E00006232068E1683A6803400025042B03D1E1
:1028F0008D1AEB43DB171D40A3682269934201DD6B
:102900009B1AED180027AF420ADA221C0123009817
:1029100001991A32089EB047431CDED00137F2E716
:102920000020FEBDF0B58BB006920A1C433207931F
:10293000059004920A7E0C1C109B6E2A00D1A8E020
:1029400011D8632A22D009D8002A00D1B2E0582A2F
:1029500000D0C2E045310A707C4A4FE0642A1DD0A5
:10296000692A1BD0B9E0732A00D1A7E009D86F2AE1
:1029700029D0702A00D0B0E0202209680A432260E2
:1029800037E0752A1FD0782A33D0A6E00E1C1A68CB
:102990004236111D196013683370A1E021681A686E
:1029A000080606D4490604D5111D19600023D55E1A
:1029B00002E0111D19601568002D3BDA2D23049AE1
:1029C0006D42137036E021681A68080606D449067D
:1029D00004D51568111D1960ADB202E0111D196012
:1029E00015685A4B227E03930A276F2A1DD10827A8
:1029F0001BE0221C782145321170554A1968039258
:102A0000081D226818600D68100602D4500600D513
:102A1000ADB2D30702D520231A4322601027002D20
:102A200003D1202322689A432260231C00224333CF
:102A30001A7002E00A27454B03936368A360002BDA
:102A400003DB0422216891432160002D02D1049E02
:102A5000002B0ED0049E281C391CFFF74BF9039B5A
:102A6000013E5B5C281C3370391CFFF7BDF8051E66
:102A7000F1D1082F09D12368DB0706D563682269E5
:102A8000934202DC3023013E3370049B9B1B236185
:102A90002BE009681A68080607D4490605D5111DF8
:102AA00019601368A28A1A8004E0111D1960136866
:102AB00062691A600023049E236116E01A68111DE2
:102AC000196016680021301C626800F0FFF80028C9
:102AD00001D0801B6060636803E0261C42363270C0
:102AE000012323610023049A1370079B0598009328
:102AF000211C069B09AAFFF7A7FE431C02D1012057
:102B0000404221E0236905980699321C079DA84799
:102B1000431CF4D023689B0705D4099BE0689842C6
:102B200012DA181C10E00025E368099A9B1A9D42EE
:102B3000F3DA221C0123059806991932079EB04743
:102B4000431CDCD00135EFE70BB0F0BD512F000086
:102B5000622F000038B50023064C051C081C2360BA
:102B6000FEF70CFE431C03D12368002B00D02B6022
:102B700038BDC0468CF7FF1F38B50C1C0E25495FC9
:102B800000F0B0F8002803DB636D1B18636503E0F9
:102B9000A289024B1340A38138BDC046FFEFFFFF5F
:102BA000F8B51E1C8B89051C0C1C171CDB0505D5F4
:102BB0000E23C95E0022022300F074F8A289054B9F
:102BC000281C1340A3813A1C0E23E15E331C00F045
:102BD0001FF8F8BDFFEFFFFF38B50C1C0E25495F4D
:102BE00000F060F8A389421C03D1054A1340A38179
:102BF00004E0802252011343A381606538BDC046C2
:102C0000FFEFFFFF08B50E23C95E00F015F808BD01
:102C100038B5051C0020074C2060081C111C1A1C2C
:102C2000FEF7B6FE431C03D12368002B00D02B60B7
:102C300038BDC0468CF7FF1F38B50023064C051C75
:102C4000081C236000F062F8431C03D12368002BAA
:102C500000D02B6038BDC0468CF7FF1F38B500236D
:102C6000064C051C081C111C236000F057F8431C7F
:102C700003D12368002B00D02B6038BD8CF7FF1FD9
:102C800038B50023064C051C081C236000F04EF8E4
:102C9000431C03D12368002B00D02B6038BDC046F5
:102CA0008CF7FF1F38B5051C0020074C2060081C5E
:102CB000111C1A1C00F042F8431C03D12368002B9E
:102CC00000D02B6038BDC0468CF7FF1FC9B28218F8
:102CD000904204D003788B4202D00130F8E7002004
:102CE0007047000038B5051C0020074C2060081C08
:102CF000111C1A1C00F02AF8431C03D12368002B76
:102D000000D02B6038BDC0468CF7FF1F5822012031
:102D1000014B40421A6070478CF7FF1F5822012078
:102D2000014B40421A6070478CF7FF1F5822024B3C
:102D300000201A607047C0468CF7FF1F5822012000
:102D4000014B40421A6070478CF7FF1F5822012048
:102D5000014B40421A6070478CF7FF1F0D0A0000BC
:102D60003F00000068656C7000000000200000005B
:102D70001201100102000020A2150FA5000001029F
:102D800003010000040309041403460072006500F7
:102D900065007300630061006C006500120355005C
:102DA000530042002D005500410052005400000025
:102DB000120354004500530054005F0031002E0000
:102DC0003000000009024300020100C03209040083
:102DD0000001020201010524001001052401000187
:102DE00004240200052406000107058103200002D7
:102DF00009040100020A0000010705820220000008
:102E00000705030220000000202020202020202091
:102E10002020202020202020FE0E0000120F000085
:102E2000120F0000120F0000120F0000400E0000F1
:102E3000520E0000120F0000F00E0000B00E000055
:102E400025326C752530326C750000005B45786565
:102E5000637574696E672066756E6374696F6E3131
:102E60005D2025640D0A0000257320000D00000080
:102E70005B457865637574696E672066756E63740B
:102E8000696F6E325D2025640D0A00006E6F636C01
:102E9000692420006572726F722C20636F6D6D6102
:102EA0006E64206E6F7420666F756E6400000000A3
:102EB00066756E6374696F6E3100000066756E63CF
:102EC00074696F6E32000000B02E0000B51900006A
:102ED000BC2E00000D1A00004300000054F0FF1F3C
:102EE00000000000000000000000000000000000E2
:102EF00000000000000000000000000000000000D2
:102F000000000000000000000000000000000000C1
:102F100000000000000000000000000000000000B1
:102F200000000000000000000000000000000000A1
:102F30000000000000000000000000000000000091
:102F4000232D302B2000686C4C0065666745464792
:102F50000030313233343536373839414243444515
:102F60004600303132333435363738396162636484
:032F700065660093
:102F7400B0F4FF1F5CF5FF1F3CF5FF1F84F6FF1F35
:102F840048F4FF1F24F4FF1F90F4FF1FF4F4FF1F05
:102F9400E4F6FF1F18F5FF1F6CF4FF1F80F5FF1FF9
:102FA400C4F6FF1F00F4FF1FA4F6FF1FD4F4FF1F95
:102FB400842D0000882D00009C2D0000B02D000001
:102FC4000100000000000000E02E0000002F0000BF
:102FD400202F00000000000000000000000000009E
:102FE40000000000D82E00000000000000000000D7
:102FF40000000000000000000000000000000000CD
:1030040000000000000000000000000000000000BC
:1030140000000000000000000000000000000000AC
:083024000000000054F0FF1F42
:0400000300000410E5
:00000001FF
